:100000000C942A000C9447000C9447000C94470071
:100010000C9447000C9447000C9447000C94470044
:100020000C9447000C9447000C940C050C943F056D
:100030000C9447000C9420070C9447000C94470044
:100040000C9422010C9447000C9447000C94470038
:100050000C94470011241FBECFE5D8E0DEBFCDBF12
:1000600012E0A0E6B0E0EEEFF2E102C005900D92E2
:10007000A435B107D9F712E0A4E5B2E001C01D92A2
:10008000A837B107E1F70E9462070C9427010C948E
:100090000000DF93CF93CDB7DEB728970FB6F89463
:1000A000DEBF0FBECDBF8E8378876F831A821B821F
:1000B0001C821D8281E0898380915F02882309F080
:1000C0005DC081E080935F02A7E2B0E0E7E2F0E08C
:1000D0008081807E8C93A7E2B0E0E7E2F0E090813F
:1000E0008E81892B8C93A6E2B0E0E6E2F0E080817D
:1000F00080648C930BC08A819B81AC81BD81019609
:10010000A11DB11D8A839B83AC83BD83E6E2F0E031
:10011000808182958F70882F90E081709070009719
:1001200061F48A819B81AC81BD81803523EC92078B
:1001300020E0A20720E0B207F1F68A819B81AC8122
:10014000BD81803523EC920720E0A20720E0B207B2
:1001500019F482E0898314C0A6E2B0E0E6E2F0E0A0
:10016000808180618C93E4E2F0E080819181EF8175
:10017000F8859183808310925F0202C084E08983B6
:10018000898128960FB6F894DEBF0FBECDBFCF9100
:10019000DF910895DF93CF9300D000D000D0CDB78A
:1001A000DEB78A837C836B835E834D8381E08983A2
:1001B00080915F028823D1F58B819C81009721F08B
:1001C0008D819E81009719F483E0898331C081E09D
:1001D00080935F02109261028B819C819093570201
:1001E000809356028D819E8190935902809358028C
:1001F000A7E2B0E0E7E2F0E08081807E8C93A7E2A6
:10020000B0E0E7E2F0E090818A81892B8C93A6E24E
:10021000B0E0E6E2F0E0808180648C93A6E2B0E09A
:10022000E6E2F0E0808188608C9302C084E08983FC
:10023000898126960FB6F894DEBF0FBECDBFCF9151
:10024000DF9108951F920F920FB60F9211242F93F2
:100250003F934F935F936F937F938F939F93AF934E
:10026000BF93EF93FF93DF93CF93CDB7DEB780912A
:1002700061028823C9F4A0915602B0915702E4E2CA
:10028000F0E0808191818D939C9310925F02E091C8
:100290005802F09159020995A6E2B0E0E6E2F0E0DA
:1002A0008081877F8C9355C080916102813009F0F5
:1002B00050C020915C0230915D0280915E02882FD7
:1002C00090E0880F991FD901A80FB91FE5E2F0E06F
:1002D0008081882F90E011969C938E9380915E028E
:1002E0008F5F80935E0290915E028091600298170A
:1002F00079F410925F02E0915802F0915902099549
:10030000A6E2B0E0E6E2F0E08081877F8C9321C036
:10031000A7E2B0E0E7E2F0E08081807E8C93A7E284
:10032000B0E0E7E2F0E0408120915A0230915B02B8
:1003300080915E02882F90E0F901E80FF91F80811B
:10034000842B8C93A6E2B0E0E6E2F0E0808180644A
:100350008C93CF91DF91FF91EF91BF91AF919F91DE
:100360008F917F916F915F914F913F912F910F905E
:100370000FBE0F901F901895DF93CF93CDB7DEB7C8
:10038000A7E2B0E0E7E2F0E0808180648C93A7E22E
:10039000B0E0E7E2F0E080818F778C93A7E2B0E0F5
:1003A000E7E2F0E080818F7D8C93A6E2B0E0E6E2A8
:1003B000F0E0808180688C93A6E2B0E0E6E2F0E0B5
:1003C0008081887F8C93A6E2B0E0E6E2F0E0808155
:1003D00080688C93A6E2B0E0E6E2F0E08081877F5F
:1003E0008C93A6E2B0E0E6E2F0E080818F7D8C9312
:1003F000A0E5B0E0E0E5F0E080818F718C93A0E5AE
:10040000B0E0E0E5F0E080818C93CF91DF9108953A
:10041000DF93CF9300D00F92CDB7DEB79B838A8353
:1004200081E089838A819B81009719F483E0898325
:1004300055C080915F02882309F04EC081E080930F
:100440005F0281E080936102EA81FB81808191817A
:1004500090935B0280935A02EA81FB8182819381AF
:1004600090935D0280935C02EA81FB81848180939A
:100470006002EA81FB818581968190935902809385
:10048000580210925E02A7E2B0E0E7E2F0E080815D
:10049000807E8C93A7E2B0E0E7E2F0E0408120911B
:1004A0005A0230915B0280915E02882F90E0F90140
:1004B000E80FF91F8081842B8C93A6E2B0E0E6E27E
:1004C000F0E0808180648C93A6E2B0E0E6E2F0E0A8
:1004D000808188608C9302C084E0898389810F9039
:1004E0000F900F90CF91DF910895DF93CF93CDB709
:1004F000DEB728970FB6F894DEBF0FBECDBF8A8354
:100500006B834C8319828B81883008F0F4C08C8116
:10051000882309F077C08A81282F30E038872F831D
:100520008F8198858130910559F12F81388522304E
:1005300031052CF48F819885009769F060C02F8178
:1005400038852230310589F18F8198858330910576
:1005500009F440C054C0ABE3B0E0EBE3F0E08081CD
:10056000482F8B81282F30E081E090E0022E02C0DE
:10057000880F991F0A94E2F7809584238C93BDC05D
:10058000A8E3B0E0E8E3F0E08081482F8B81282FDA
:1005900030E081E090E0022E02C0880F991F0A949B
:1005A000E2F7809584238C93A8C0A5E3B0E0E5E34F
:1005B000F0E08081482F8B81282F30E081E090E0AF
:1005C000022E02C0880F991F0A94E2F780958423B7
:1005D0008C9393C0A2E3B0E0E2E3F0E08081482F87
:1005E0008B81282F30E081E090E0022E02C0880F3E
:1005F000991F0A94E2F7809584238C937EC081E052
:1006000089837BC08C81813009F072C08A81282F58
:1006100030E03E832D838D819E818130910549F1AB
:100620002D813E81223031052CF48D819E810097F1
:1006300061F05BC02D813E812230310571F18D81E9
:100640009E8183309105E9F150C0ABE3B0E0EBE36C
:10065000F0E08081482F8B81282F30E081E090E00E
:10066000022E02C0880F991F0A94E2F7842B8C9304
:1006700044C0A8E3B0E0E8E3F0E08081482F8B813C
:10068000282F30E081E090E0022E02C0880F991FF1
:100690000A94E2F7842B8C9330C0A5E3B0E0E5E345
:1006A000F0E08081482F8B81282F30E081E090E0BE
:1006B000022E02C0880F991F0A94E2F7842B8C93B4
:1006C0001CC0A2E3B0E0E2E3F0E08081482F8B8120
:1006D000282F30E081E090E0022E02C0880F991FA1
:1006E0000A94E2F7842B8C9308C081E0898305C0CB
:1006F00081E0898302C081E08983898128960FB6D1
:10070000F894DEBF0FBECDBFCF91DF910895DF9388
:10071000CF9300D000D00F92CDB7DEB78A836B8322
:1007200019828A81282F30E03D832C838C819D8122
:1007300081309105D1F02C813D81223031052CF49E
:100740008C819D81009761F01FC02C813D812230FA
:10075000310581F08C819D818330910581F014C039
:10076000EBE3F0E08B81808311C0E8E3F0E08B8164
:1007700080830CC0E5E3F0E08B81808307C0E2E377
:10078000F0E08B81808302C081E0898389810F90B2
:100790000F900F900F900F90CF91DF910895DF93FE
:1007A000CF93CDB7DEB728970FB6F894DEBF0FBE54
:1007B000CDBF8A836B835D834C8319828C819D813D
:1007C000009709F478C08B81883008F074C08A8162
:1007D000282F30E03F832E834E815F8141305105C9
:1007E00059F18E819F818230910534F42E813F81B1
:1007F0002115310569F05CC04E815F8142305105A1
:1008000079F18E819F818330910509F43DC050C0FC
:10081000E9E3F0E08081282F30E08B81882F90E0A1
:10082000A90102C0559547958A95E2F7CA018170E2
:10083000EC81FD8180833EC0E6E3F0E08081282FDB
:1008400030E08B81882F90E0A90102C05595479533
:100850008A95E2F7CA018170EC81FD8180832AC00C
:10086000E3E3F0E08081282F30E08B81882F90E057
:10087000A90102C0559547958A95E2F7CA01817092
:10088000EC81FD81808316C0E0E3F0E08081282FB9
:1008900030E08B81882F90E0A90102C055954795E3
:1008A0008A95E2F7CA018170EC81FD81808302C0E4
:1008B00081E0898304C081E0898389818887888574
:1008C00028960FB6F894DEBF0FBECDBFCF91DF9153
:1008D0000895DF93CF93CDB7DEB7AFE5B0E0EFE596
:1008E000F0E0808180688C93CF91DF910895DF9351
:1008F000CF93CDB7DEB7AFE5B0E0EFE5F0E08081B4
:100900008F778C93CF91DF910895DF93CF93CDB7FD
:10091000DEB7EAE3F0E083EF8083E7E3F0E08FEF18
:100920008083E4E3F0E08FEF8083E1E3F0E082E3B3
:100930008083EBE3F0E01082E8E3F0E01082E5E38F
:10094000F0E01082E2E3F0E01082CF91DF910895B1
:10095000DF93CF93CDB7DEB7A3E5B0E0E3E5F0E0FA
:10096000808180648C93A3E5B0E0E3E5F0E08081D2
:1009700088608C93A3E5B0E0E3E5F0E080818E7FB2
:100980008C93A3E5B0E0E3E5F0E0808182608C9396
:10099000A3E5B0E0E3E5F0E080818B7F8C93A3E5F5
:1009A000B0E0E3E5F0E080818F7E8C93A3E5B0E0DA
:1009B000E3E5F0E0808180628C93CF91DF91089530
:1009C000DF93CF930F92CDB7DEB78983ECE5F0E0EC
:1009D000898180830F90CF91DF910895DF93CF932A
:1009E00000D00F92CDB7DEB79B838A8381E08983E5
:1009F0008A819B81009739F08A819B819093630261
:100A00008093620202C083E0898389810F900F90F6
:100A10000F90CF91DF9108951F920F920FB60F9212
:100A200011242F933F934F935F936F937F938F93F3
:100A30009F93AF93BF93EF93FF93DF93CF93CDB784
:100A4000DEB78091620290916302009729F0E091F5
:100A50006202F09163020995CF91DF91FF91EF91CE
:100A6000BF91AF919F918F917F916F915F914F91C6
:100A70003F912F910F900FBE0F901F9018951F92CE
:100A80000F920FB60F9211242F933F934F935F93C2
:100A90006F937F938F939F93AF93BF93EF93FF9346
:100AA000DF93CF93CDB7DEB780916202909163025E
:100AB000009729F0E0916202F09163020995CF91CD
:100AC000DF91FF91EF91BF91AF919F918F917F91B6
:100AD0006F915F914F913F912F910F900FBE0F90AB
:100AE0001F901895DF93CF93CDB7DEB7AFE4B0E09A
:100AF000EFE4F0E080818E7F8C93AFE4B0E0EFE430
:100B0000F0E0808182608C93AEE4B0E0EEE4F0E04F
:100B1000808188608C93AEE4B0E0EEE4F0E0808108
:100B200080618C93AFE4B0E0EFE4F0E080818F7BF4
:100B30008C93AFE4B0E0EFE4F0E0808180688C93C8
:100B4000AFE4B0E0EFE4F0E080818F7E8C93AFE41F
:100B5000B0E0EFE4F0E0808180628C93AEE4B0E03E
:100B6000EEE4F0E080818E7F8C93AEE4B0E0EEE4C2
:100B7000F0E0808182608C93AEE4B0E0EEE4F0E0DF
:100B800080818B7F8C93CF91DF910895DF93CF93FA
:100B900000D0CDB7DEB79A838983EAE4F0E089819B
:100BA0009A81918380830F900F90CF91DF91089568
:100BB000DF93CF930F92CDB7DEB71982898180681A
:100BC000898389818F7B898389818F7E89838981CC
:100BD0008F7D89838981877F8983898184608983E7
:100BE000898182608983E0E4F0E089818083E9E2A1
:100BF000F0E083E38083AAE2B0E0EAE2F0E0808103
:100C000080618C93AAE2B0E0EAE2F0E08081886043
:100C10008C930F90CF91DF910895DF93CF930F9234
:100C2000CDB7DEB78983EBE2F0E0808182958695CF
:100C30008770882F90E0817090700097A1F3ECE2AC
:100C4000F0E0898180830F90CF91DF910895DF9349
:100C5000CF9300D0CDB7DEB79A8389830BC0E981EB
:100C6000FA81208189819A8101969A838983822FD2
:100C70000E940D06E981FA818081882381F70F9017
:100C80000F90CF91DF910895DF93CF9300D00F9213
:100C9000CDB7DEB79B838A83198203C089818F5FBA
:100CA0008983EA81FB8180818823C1F70F900F90AF
:100CB0000F90CF91DF910895DF93CF93CDB7DEB73B
:100CC000EBE2F0E080818823DCF7ECE2F0E0808169
:100CD000CF91DF910895DF93CF9300D00F92CDB7DE
:100CE000DEB71B82EBE2F0E080818823DCF70EC0E8
:100CF0008B81282F30E089819A81FC01E20FF31F5C
:100D000080810E940D068B818F5F8B838B81282FC2
:100D100030E089819A81FC01E20FF31F80818823F2
:100D200039F7ACE2B0E0E981FA8180818C93898166
:100D30009A810F900F900F90CF91DF910895DF93DC
:100D4000CF9300D00F92CDB7DEB79B838A831982F1
:100D5000EBE2F0E08081829586958770882F90E0A5
:100D6000817090700097A1F30EC08981282F30E028
:100D70008A819B81FC01E20FF31F80810E940D0696
:100D800089818F5F89838981282F30E08A819B81C7
:100D9000FC01E20FF31F8081882339F7ECE2F0E0D9
:100DA000AA81BB818C9180830F900F900F90CF917F
:100DB000DF9108950F931F93DF93CF9300D000D05E
:100DC000CDB7DEB79C838B831A8219828A81282F44
:100DD00030E08B819C818C01020F131F0E945C0606
:100DE000F80180838A81282F30E08B819C81FC016F
:100DF000E20FF31F808189838A818F5F8A838981D3
:100E0000882319F089818D3009F70F900F900F908A
:100E10000F90CF91DF911F910F910895DF93CF93A2
:100E200000D0CDB7DEB79A83898389819A81909368
:100E30006502809364020F900F90CF91DF91089527
:100E40001F920F920FB60F9211242F933F934F933F
:100E50005F936F937F938F939F93AF93BF93EF9322
:100E6000FF93DF93CF93CDB7DEB7E0916402F091AB
:100E700065020995CF91DF91FF91EF91BF91AF91FD
:100E80009F918F917F916F915F914F913F912F91A2
:100E90000F900FBE0F901F901895DF93CF93CDB793
:100EA000DEB7AAE2B0E0EAE2F0E0808180688C93ED
:100EB000ABE2B0E0EBE2F0E0808180688C93CF9110
:100EC000DF910895DF93CF9300D000D0CDB7DEB788
:100ED0000E9485040E9469040E94BC010E94720560
:100EE0000E94A804E6E4F0E08FE19EE49183808311
:100EF000E8E4F0E01182108280E00E94E0040E94A9
:100F0000D8058AE00E940D068DE00E940D0680E65D
:100F100090E00E9427068AE00E940D068DE00E9464
:100F20000D060E94D2080E944D079E012D5F3F4F83
:100F300083E0B9010E94490082E09E012F5F3F4F8C
:100F4000B9010E94490080916702813049F48B8188
:100F50009C8196958795969587950E94E00407C099
:100F600080916702882319F480E00E94E004809158
:100F70006602813049F4E8E4F0E089819A81805882
:100F800091409183808308C080916602882321F478
:100F9000E8E4F0E01182108281ED97E00E940E07F4
:100FA000C4CFDF93CF93CDB7DEB788E692E00E943F
:100FB000DA0688E692E02CEF31E0B90145E050E036
:100FC0000E947109009741F480E061E041E00E94D5
:100FD00075020E946009E3C088E692E022E032E0F8
:100FE000B90146E050E00E947109009741F480E0A9
:100FF00061E040E00E9475020E946009D0C088E66E
:1010000092E02BEE31E0B90147E050E00E94710917
:10101000009741F480E060E041E00E9475020E9488
:101020006009BDC088E692E023EF31E0B90148E0F5
:1010300050E00E947109009741F480E060E040E0D8
:101040000E9475020E946009AAC088E692E029E029
:1010500032E0B90148E050E00E947109009739F48C
:101060008AE590E00E943B090E94600998C088E6EA
:1010700092E022E132E0B90149E050E00E947109BA
:10108000009739F480E090E00E943B090E946009DB
:1010900086C088E692E02CE132E0B9014CE050E0F5
:1010A0000E947109009731F481E0809366020E94EA
:1010B000600975C088E692E029E232E0B9014DE0AE
:1010C00050E00E947109009729F4109266020E9474
:1010D000600965C088E692E027E332E0B9014AE0A2
:1010E00050E00E947109009731F481E0809367021B
:1010F0000E94600954C088E692E022E432E0B9011F
:101100004AE050E00E947109009729F410926702AA
:101110000E94600944C088E692E02EE432E0B90102
:1011200044E050E00E947109009729F580E061E0F9
:1011300040E00E94750280E060E040E00E9475029D
:1011400080E090E00E943B091092670210926602D4
:101150008AE00E940D068DE00E940D0680E690E078
:101160000E9427068AE00E940D068DE00E940D066F
:101170000E94D20814C08DE00E940D068AE00E94F1
:101180000D0683E890E00E9427068DE00E940D0680
:101190008AE00E940D0681E990E00E942706CF9127
:1011A000DF910895DF93CF930F92CDB7DEB7198209
:1011B0008EE990E00E94270688E692E00E94DA0617
:1011C00088E692E026EE31E0B90144E050E00E946A
:1011D0007109009769F58AEA90E00E9427068AE083
:1011E0000E940D068DE00E940D068CEC90E00E949E
:1011F00027068AE00E940D068DE00E940D0686E01B
:1012000091E00E9427068AE00E940D068DE00E9470
:101210000D0687E591E00E9427068AE00E940D06F0
:101220008DE00E940D0681E990E00E94270611C022
:1012300089818F5F89838EE991E00E9427068AE089
:101240000E940D068DE00E940D068981833008F40E
:10125000AFCF8981833059F48AE00E940D068DE07A
:101260000E940D0684ED91E00E942706FFCF0F90AB
:10127000CF91DF910895DF93CF930F92CDB7DEB773
:101280008983E6E4F0E08FE19EE491838083EAE4E1
:10129000F0E08981482F50E0CA01880F991F9C0116
:1012A000220F331F220F331F820F931F840F951FAE
:1012B0008F539E4F918380830F90CF91DF9108953C
:1012C000DF93CF93CDB7DEB78DE00E940D068AE0A5
:1012D0000E940D0681E990E00E942706CF91DF91E0
:1012E0000895FB01DC014150504030F08D91019098
:0E12F000801919F40020B9F7881B990B089596
:1012FE0055415254204D6F64756C6520496E69746A
:10130E0069616C697A656420616E642041637469F9
:10131E0076650057726F6E6720636F6D6D616E64D8
:10132E0000536D6172745F486F6D653E3E00456E91
:10133E007465722050494E3A200057656C636F6D8C
:10134E006520746F20536D61727420486F6D652037
:10135E004170706C69636174696F6E00202020208B
:10136E00202020202020202020202020202020206F
:10137E0020202020202020204C697374206F6620AE
:10138E00636F6D6D616E64732020202020202020FD
:10139E002020202020006C696768746F6E2020204A
:1013AE0020202020202020206C696768746F6666DC
:1013BE002020202020202020206F70656E646F6F0B
:1013CE007220202020202020636C6F7365646F6F65
:1013DE007220202020202066616E6F6E202020203B
:1013EE0066616E6F666600736D6172746C696768B4
:1013FE00746F6E202020202020736D6172746C69D2
:10140E006768746F6E2020202020736D6172746681
:10141E00616E6F6E2020202020736D617274666184
:10142E006E6F6666202020202065786974005772E2
:10143E006F6E672070617373776F72642C20706C9F
:10144E00656173652074727920616761696E202D04
:10145E002072656D61696E696E6720747269616C68
:10146E00733A20004163636F756E74206C6F636B0B
:10147E0065642021210031323334006C6967687451
:10148E006F6E006C696768746F66660066616E6F7A
:10149E006E0066616E6F6666006F70656E646F6F6C
:1014AE007200636C6F7365646F6F7200736D61723F
:1014BE00746C696768746F6E00736D6172746C69B9
:1014CE006768746F666600736D61727466616E6FC5
:1014DE006E00736D61727466616E6F66660065781C
:0414EE00697400001D
:00000001FF
